{"abi":[{"type":"constructor","inputs":[{"name":"plonkVerifierAddress","type":"address","internalType":"address"}],"stateMutability":"nonpayable"},{"type":"receive","stateMutability":"payable"},{"type":"function","name":"claimReward","inputs":[{"name":"proof","type":"bytes","internalType":"bytes"},{"name":"pubSignals","type":"uint256[]","internalType":"uint256[]"},{"name":"multiplier","type":"uint256","internalType":"uint256"}],"outputs":[],"stateMutability":"nonpayable"},{"type":"function","name":"emergencyWithdraw","inputs":[{"name":"to","type":"address","internalType":"address"}],"outputs":[],"stateMutability":"nonpayable"},{"type":"function","name":"hasClaimed","inputs":[{"name":"","type":"address","internalType":"address"}],"outputs":[{"name":"","type":"bool","internalType":"bool"}],"stateMutability":"view"},{"type":"function","name":"placeBet","inputs":[],"outputs":[],"stateMutability":"payable"},{"type":"function","name":"s_plonkVerifierAddress","inputs":[],"outputs":[{"name":"","type":"address","internalType":"address"}],"stateMutability":"view"},{"type":"function","name":"userBets","inputs":[{"name":"","type":"address","internalType":"address"}],"outputs":[{"name":"","type":"uint256","internalType":"uint256"}],"stateMutability":"view"},{"type":"event","name":"BetPlaced","inputs":[{"name":"user","type":"address","indexed":true,"internalType":"address"},{"name":"amount","type":"uint256","indexed":false,"internalType":"uint256"}],"anonymous":false},{"type":"event","name":"ProofFailed","inputs":[{"name":"user","type":"address","indexed":true,"internalType":"address"}],"anonymous":false},{"type":"event","name":"RewardClaimed","inputs":[{"name":"user","type":"address","indexed":true,"internalType":"address"},{"name":"amount","type":"uint256","indexed":false,"internalType":"uint256"}],"anonymous":false}],"bytecode":{"object":"0x608060405234801561000f575f5ffd5b5060405161134e38038061134e833981810160405281019061003191906100d4565b805f5f6101000a81548173ffffffffffffffffffffffffffffffffffffffff021916908373ffffffffffffffffffffffffffffffffffffffff160217905550506100ff565b5f5ffd5b5f73ffffffffffffffffffffffffffffffffffffffff82169050919050565b5f6100a38261007a565b9050919050565b6100b381610099565b81146100bd575f5ffd5b50565b5f815190506100ce816100aa565b92915050565b5f602082840312156100e9576100e8610076565b5b5f6100f6848285016100c0565b91505092915050565b6112428061010c5f395ff3fe608060405260043610610058575f3560e01c806321e7fb471461006357806344896a9a1461008b5780634e92a646146100b55780636ff1c9bc146100f157806373b2e80e14610119578063f90f4560146101555761005f565b3661005f57005b5f5ffd5b34801561006e575f5ffd5b5061008960048036038101906100849190610aaf565b61015f565b005b348015610096575f5ffd5b5061009f610583565b6040516100ac9190610b76565b60405180910390f35b3480156100c0575f5ffd5b506100db60048036038101906100d69190610bb9565b6105a7565b6040516100e89190610bf3565b60405180910390f35b3480156100fc575f5ffd5b5061011760048036038101906101129190610bb9565b6105bc565b005b348015610124575f5ffd5b5061013f600480360381019061013a9190610bb9565b610671565b60405161014c9190610c26565b60405180910390f35b61015d61068e565b005b5f60015f3373ffffffffffffffffffffffffffffffffffffffff1673ffffffffffffffffffffffffffffffffffffffff1681526020019081526020015f2054116101de576040517f08c379a00000000000000000000000000000000000000000000000000000000081526004016101d590610c99565b60405180910390fd5b60025f3373ffffffffffffffffffffffffffffffffffffffff1673ffffffffffffffffffffffffffffffffffffffff1681526020019081526020015f205f9054906101000a900460ff1615610268576040517f08c379a000000000000000000000000000000000000000000000000000000000815260040161025f90610d01565b60405180910390fd5b5f5f5f9054906101000a900473ffffffffffffffffffffffffffffffffffffffff1673ffffffffffffffffffffffffffffffffffffffff16631e8e1e1385856040518363ffffffff1660e01b81526004016102c4929190610e36565b602060405180830381865afa1580156102df573d5f5f3e3d5ffd5b505050506040513d601f19601f820116820180604052508101906103039190610e95565b905080610345576040517f08c379a000000000000000000000000000000000000000000000000000000000815260040161033c90610f0a565b60405180910390fd5b6001835f8151811061035a57610359610f28565b5b6020026020010151146103a2576040517f08c379a000000000000000000000000000000000000000000000000000000000815260040161039990610f9f565b60405180910390fd5b5f8260015f3373ffffffffffffffffffffffffffffffffffffffff1673ffffffffffffffffffffffffffffffffffffffff1681526020019081526020015f20546103ec9190610fea565b90505f60015f3373ffffffffffffffffffffffffffffffffffffffff1673ffffffffffffffffffffffffffffffffffffffff1681526020019081526020015f2081905550600160025f3373ffffffffffffffffffffffffffffffffffffffff1673ffffffffffffffffffffffffffffffffffffffff1681526020019081526020015f205f6101000a81548160ff0219169083151502179055505f3373ffffffffffffffffffffffffffffffffffffffff16826040516104aa90611058565b5f6040518083038185875af1925050503d805f81146104e4576040519150601f19603f3d011682016040523d82523d5f602084013e6104e9565b606091505b505090508061052d576040517f08c379a0000000000000000000000000000000000000000000000000000000008152600401610524906110b6565b60405180910390fd5b3373ffffffffffffffffffffffffffffffffffffffff167f106f923f993c2149d49b4255ff723acafa1f2d94393f561d3eda32ae348f7241836040516105739190610bf3565b60405180910390a2505050505050565b5f5f9054906101000a900473ffffffffffffffffffffffffffffffffffffffff1681565b6001602052805f5260405f205f915090505481565b3273ffffffffffffffffffffffffffffffffffffffff163373ffffffffffffffffffffffffffffffffffffffff161461062a576040517f08c379a00000000000000000000000000000000000000000000000000000000081526004016106219061111e565b60405180910390fd5b8073ffffffffffffffffffffffffffffffffffffffff166108fc4790811502906040515f60405180830381858888f1935050505015801561066d573d5f5f3e3d5ffd5b5050565b6002602052805f5260405f205f915054906101000a900460ff1681565b5f34116106d0576040517f08c379a00000000000000000000000000000000000000000000000000000000081526004016106c790611186565b60405180910390fd5b5f60015f3373ffffffffffffffffffffffffffffffffffffffff1673ffffffffffffffffffffffffffffffffffffffff1681526020019081526020015f20541461074f576040517f08c379a0000000000000000000000000000000000000000000000000000000008152600401610746906111ee565b60405180910390fd5b60025f3373ffffffffffffffffffffffffffffffffffffffff1673ffffffffffffffffffffffffffffffffffffffff1681526020019081526020015f205f9054906101000a900460ff16156107d9576040517f08c379a00000000000000000000000000000000000000000000000000000000081526004016107d090610d01565b60405180910390fd5b3460015f3373ffffffffffffffffffffffffffffffffffffffff1673ffffffffffffffffffffffffffffffffffffffff1681526020019081526020015f20819055503373ffffffffffffffffffffffffffffffffffffffff167f43e08d78302cdf9c94e1ffd293c2a3696139ee41cf3199b6f5eed9c7f6cc6090346040516108619190610bf3565b60405180910390a2565b5f604051905090565b5f5ffd5b5f5ffd5b5f5ffd5b5f5ffd5b5f601f19601f8301169050919050565b7f4e487b71000000000000000000000000000000000000000000000000000000005f52604160045260245ffd5b6108ca82610884565b810181811067ffffffffffffffff821117156108e9576108e8610894565b5b80604052505050565b5f6108fb61086b565b905061090782826108c1565b919050565b5f67ffffffffffffffff82111561092657610925610894565b5b61092f82610884565b9050602081019050919050565b828183375f83830152505050565b5f61095c6109578461090c565b6108f2565b90508281526020810184848401111561097857610977610880565b5b61098384828561093c565b509392505050565b5f82601f83011261099f5761099e61087c565b5b81356109af84826020860161094a565b91505092915050565b5f67ffffffffffffffff8211156109d2576109d1610894565b5b602082029050602081019050919050565b5f5ffd5b5f819050919050565b6109f9816109e7565b8114610a03575f5ffd5b50565b5f81359050610a14816109f0565b92915050565b5f610a2c610a27846109b8565b6108f2565b90508083825260208201905060208402830185811115610a4f57610a4e6109e3565b5b835b81811015610a785780610a648882610a06565b845260208401935050602081019050610a51565b5050509392505050565b5f82601f830112610a9657610a9561087c565b5b8135610aa6848260208601610a1a565b91505092915050565b5f5f5f60608486031215610ac657610ac5610874565b5b5f84013567ffffffffffffffff811115610ae357610ae2610878565b5b610aef8682870161098b565b935050602084013567ffffffffffffffff811115610b1057610b0f610878565b5b610b1c86828701610a82565b9250506040610b2d86828701610a06565b9150509250925092565b5f73ffffffffffffffffffffffffffffffffffffffff82169050919050565b5f610b6082610b37565b9050919050565b610b7081610b56565b82525050565b5f602082019050610b895f830184610b67565b92915050565b610b9881610b56565b8114610ba2575f5ffd5b50565b5f81359050610bb381610b8f565b92915050565b5f60208284031215610bce57610bcd610874565b5b5f610bdb84828501610ba5565b91505092915050565b610bed816109e7565b82525050565b5f602082019050610c065f830184610be4565b92915050565b5f8115159050919050565b610c2081610c0c565b82525050565b5f602082019050610c395f830184610c17565b92915050565b5f82825260208201905092915050565b7f4e6f2062657420706c61636564000000000000000000000000000000000000005f82015250565b5f610c83600d83610c3f565b9150610c8e82610c4f565b602082019050919050565b5f6020820190508181035f830152610cb081610c77565b9050919050565b7f416c726561647920636c61696d656400000000000000000000000000000000005f82015250565b5f610ceb600f83610c3f565b9150610cf682610cb7565b602082019050919050565b5f6020820190508181035f830152610d1881610cdf565b9050919050565b5f81519050919050565b5f82825260208201905092915050565b8281835e5f83830152505050565b5f610d5182610d1f565b610d5b8185610d29565b9350610d6b818560208601610d39565b610d7481610884565b840191505092915050565b5f81519050919050565b5f82825260208201905092915050565b5f819050602082019050919050565b610db1816109e7565b82525050565b5f610dc28383610da8565b60208301905092915050565b5f602082019050919050565b5f610de482610d7f565b610dee8185610d89565b9350610df983610d99565b805f5b83811015610e29578151610e108882610db7565b9750610e1b83610dce565b925050600181019050610dfc565b5085935050505092915050565b5f6040820190508181035f830152610e4e8185610d47565b90508181036020830152610e628184610dda565b90509392505050565b610e7481610c0c565b8114610e7e575f5ffd5b50565b5f81519050610e8f81610e6b565b92915050565b5f60208284031215610eaa57610ea9610874565b5b5f610eb784828501610e81565b91505092915050565b7f496e76616c6964205a4b2070726f6f66000000000000000000000000000000005f82015250565b5f610ef4601083610c3f565b9150610eff82610ec0565b602082019050919050565b5f6020820190508181035f830152610f2181610ee8565b9050919050565b7f4e487b71000000000000000000000000000000000000000000000000000000005f52603260045260245ffd5b7f436f6e646974696f6e206e6f74206d65743a206e6f7420612077696e6e6572005f82015250565b5f610f89601f83610c3f565b9150610f9482610f55565b602082019050919050565b5f6020820190508181035f830152610fb681610f7d565b9050919050565b7f4e487b71000000000000000000000000000000000000000000000000000000005f52601160045260245ffd5b5f610ff4826109e7565b9150610fff836109e7565b925082820261100d816109e7565b9150828204841483151761102457611023610fbd565b5b5092915050565b5f81905092915050565b50565b5f6110435f8361102b565b915061104e82611035565b5f82019050919050565b5f61106282611038565b9150819050919050565b7f5472616e73666572206661696c656400000000000000000000000000000000005f82015250565b5f6110a0600f83610c3f565b91506110ab8261106c565b602082019050919050565b5f6020820190508181035f8301526110cd81611094565b9050919050565b7f4f6e6c7920454f412063616e2063616c6c2074686973000000000000000000005f82015250565b5f611108601683610c3f565b9150611113826110d4565b602082019050919050565b5f6020820190508181035f830152611135816110fc565b9050919050565b7f426574206d7573742062652067726561746572207468616e20300000000000005f82015250565b5f611170601a83610c3f565b915061117b8261113c565b602082019050919050565b5f6020820190508181035f83015261119d81611164565b9050919050565b7f416c726561647920706c616365642061206265740000000000000000000000005f82015250565b5f6111d8601483610c3f565b91506111e3826111a4565b602082019050919050565b5f6020820190508181035f830152611205816111cc565b905091905056fea2646970667358221220cb486c672f1879748e5c4a4fcc3eb67e2d8a9d22e625793d1575152ea4f2d17164736f6c634300081c0033","linkReferences":{}},"methodIdentifiers":{"claimReward(bytes,uint256[],uint256)":"21e7fb47","emergencyWithdraw(address)":"6ff1c9bc","hasClaimed(address)":"73b2e80e","placeBet()":"f90f4560","s_plonkVerifierAddress()":"44896a9a","userBets(address)":"4e92a646"},"id":16}