{"abi":[{"type":"function","name":"verifyProof","inputs":[{"name":"_proof","type":"uint256[24]","internalType":"uint256[24]"},{"name":"_pubSignals","type":"uint256[1]","internalType":"uint256[1]"}],"outputs":[{"name":"","type":"bool","internalType":"bool"}],"stateMutability":"view"}],"bytecode":{"object":"0x6080604052348015600e575f5ffd5b50611b2a8061001c5f395ff3fe608060405234801561000f575f5ffd5b5060043610610029575f3560e01c8063ff7240a71461002d575b5f5ffd5b61004760048036038101906100429190611a81565b61005d565b6040516100549190611adb565b60405180910390f35b5f6119ca565b5f5f600184845f5f5b8215610096578284059150848202860390508495508094508282028403905082935080925061006c565b60018411156100a3575f5ffd5b5f8612156100b15788860195505b85965050505050505092915050565b6040518160208402830181516020830192505f5b82841015610117578185527f30644e72e131a029b85045b68181585d2833e84879b9709143e1f593f00000018451830991506020850194506020840193506100d4565b6101417f30644e72e131a029b85045b68181585d2833e84879b9709143e1f593f000000183610063565b91506020850394506020840393508592505b828411156101bd577f30644e72e131a029b85045b68181585d2833e84879b9709143e1f593f00000018551830990507f30644e72e131a029b85045b68181585d2833e84879b9709143e1f593f0000001845183099150808452602085039450602084039350610153565b81845250505050505050565b7f30644e72e131a029b85045b68181585d2833e84879b9709143e1f593f000000181106101f8575f5f5260205ff35b50565b610207610244356101c9565b610213610264356101c9565b61021f610284356101c9565b61022b6102a4356101c9565b6102376102c4356101c9565b6102436102e4356101c9565b565b5f5f6040517f2f9a0685c52035678b468ef23503fbd01a1691f0047108d4248fe738e6b6105581527f1dc14512b8f640189c8388893fa7b51e1b45f4245e1b12b3c5e7c553ba795e6960208201527f03fe6755813ffc188b5267d2c9f3e3fc0d2e444396ffe1a4a913f5430666e96a60408201527f1371e00efe595fd2066a5d4c9048278059f71893e35642ce1d2d15bf4a047a0560608201527f08fcc7e26ea519e81c46166ea35fa0b637321d74fbfee91470a173c8f251f54760808201527f2b9ffe329e87adb9f547438a451b63f1f01dd09e95b8f59c1bd3644369a60e7960a08201527f1d5be03e469528390dd65bc93bf492d7906b1e7e37bd191cffb5ca2ce6f347b860c08201527f1c7a4eb5bb898b1f5b938c08abe31dd6b0e47cb468775ad7bbb4af4b14f5344960e08201527f249765b6620de8103abd02b8cc2c5dc392c119c5a6e059e15dead72063560b8b6101008201527f17188614d3ebde1032eb43719767cb7d394bc12c5e361f5c470903d05b61a8386101208201527f246c11fb9a5a734c8fadef178d9e9cb0e30fe074ab167edaf2fa78d95a20f2156101408201527f29de0c239a5033a8707effafe6247d137006ff75ac0edf7f31650cf92d519ee26101608201527f04bac4d6a8c5c0e81e50c0211eae09541a83deaaf2f3cad51e1c83581083190a6101808201527f138a97439a5bf03b60c6d18a363f3979e960779e046ffb9df39bd94b2ead0f426101a08201527f0348408e92f63afe8e03da3e33275c0c9c90abb31f421233886414e403af3ef26101c08201527f1d7059fb3537f99f83ec97a5944d1125e16b5b9f16315e51b3e0c44a5e9561836101e08201525f8501356102008201526004356102208201526020600401356102408201526044356102608201526020604401356102808201526084356102a08201526020608401356102c08201527f30644e72e131a029b85045b68181585d2833e84879b9709143e1f593f00000016102e082200692508260208501527f30644e72e131a029b85045b68181585d2833e84879b9709143e1f593f0000001602080860120066040850152602084015181526040840151602082015260c4356040820152602060c4013560608201527f30644e72e131a029b85045b68181585d2833e84879b9709143e1f593f000000160808220069150815f8501527f30644e72e131a029b85045b68181585d2833e84879b9709143e1f593f00000018283096102c08501528181526101043560208201526020610104013560408201526101443560608201526020610144013560808201526101843560a08201526020610184013560c08201527f30644e72e131a029b85045b68181585d2833e84879b9709143e1f593f000000160e082200691508160608501528181526102443560208201526102643560408201526102843560608201526102a43560808201526102c43560a08201526102e43560c08201527f30644e72e131a029b85045b68181585d2833e84879b9709143e1f593f000000160e08220068060c08601527f30644e72e131a029b85045b68181585d2833e84879b9709143e1f593f000000183850960a08601527f30644e72e131a029b85045b68181585d2833e84879b9709143e1f593f000000183840992507f30644e72e131a029b85045b68181585d2833e84879b9709143e1f593f000000183840992507f30644e72e131a029b85045b68181585d2833e84879b9709143e1f593f000000183840992507f30644e72e131a029b85045b68181585d2833e84879b9709143e1f593f000000183840992507f30644e72e131a029b85045b68181585d2833e84879b9709143e1f593f000000183840992507f30644e72e131a029b85045b68181585d2833e84879b9709143e1f593f000000183840992507f30644e72e131a029b85045b68181585d2833e84879b9709143e1f593f000000183840992508260808601527f30644e72e131a029b85045b68181585d2833e84879b9709143e1f593f0000001806001850301069250826102e0860152826103008601527f30644e72e131a029b85045b68181585d2833e84879b9709143e1f593f000000181820992508260e08601527f30644e72e131a029b85045b68181585d2833e84879b9709143e1f593f00000018184099250826101008601527f30644e72e131a029b85045b68181585d2833e84879b9709143e1f593f00000018184099250826101208601527f30644e72e131a029b85045b68181585d2833e84879b9709143e1f593f00000018184099250826101408601526101c435825260206101c4013560208301526102043560408301526020610204013560608301527f30644e72e131a029b85045b68181585d2833e84879b9709143e1f593f00000016080832006610160860152505050505050565b60017f30644e72e131a029b85045b68181585d2833e84879b9709143e1f593f0000001807f30644e72e131a029b85045b68181585d2833e84879b9709143e1f593f0000001836060860151030106608009610320830152610989600261030084016100c0565b6102e0820151600191507f30644e72e131a029b85045b68181585d2833e84879b9709143e1f593f00000018161032085015109610320840152505050565b5f7f30644e72e131a029b85045b68181585d2833e84879b9709143e1f593f0000001807f30644e72e131a029b85045b68181585d2833e84879b9709143e1f593f00000015f8601356103208601510983030106905080610180830152505050565b6101808101517f30644e72e131a029b85045b68181585d2833e84879b9709143e1f593f00000016102c0830151610320840151097f30644e72e131a029b85045b68181585d2833e84879b9709143e1f593f0000001806102a43560208601510961024435087f30644e72e131a029b85045b68181585d2833e84879b9709143e1f593f00000016040850151820890507f30644e72e131a029b85045b68181585d2833e84879b9709143e1f593f0000001806102c43560208701510961026435087f30644e72e131a029b85045b68181585d2833e84879b9709143e1f593f00000016040860151820890507f30644e72e131a029b85045b68181585d2833e84879b9709143e1f593f0000001604086015161028435087f30644e72e131a029b85045b68181585d2833e84879b9709143e1f593f0000001817f30644e72e131a029b85045b68181585d2833e84879b9709143e1f593f0000001848609097f30644e72e131a029b85045b68181585d2833e84879b9709143e1f593f00000016102e435820990507f30644e72e131a029b85045b68181585d2833e84879b9709143e1f593f00000015f880151820990507f30644e72e131a029b85045b68181585d2833e84879b9709143e1f593f000000180867f30644e72e131a029b85045b68181585d2833e84879b9709143e1f593f0000001030687087f30644e72e131a029b85045b68181585d2833e84879b9709143e1f593f000000180837f30644e72e131a029b85045b68181585d2833e84879b9709143e1f593f0000001030682089050806101a08901525050505050505050565b81518152602082015160208201525050565b818152826020820152505050565b81358152602082013560208201525050565b6040518151815260208201516020820152825160408201526020830151606082015260408260808360066107d05a03fa80610ce8575f5f5260205ff35b50505050565b5f60405183815284602082015285604082015260408160608360076107d05a03fa915081610d1e575f5f5260205ff35b825160408201526020830151606082015260408360808360066107d05a03fa915081610d4c575f5f5260205ff35b505050505050565b5f60405183815284602082015285604082015260408360608360076107d05a03fa915081610d84575f5f5260205ff35b505050505050565b610d9d836020840151845184610d54565b505050565b6101c0810160408201516040516101008101604052610e027f17188614d3ebde1032eb43719767cb7d394bc12c5e361f5c470903d05b61a8387f249765b6620de8103abd02b8cc2c5dc392c119c5a6e059e15dead72063560b8b85610c8b565b610e777f30644e72e131a029b85045b68181585d2833e84879b9709143e1f593f00000016102643561024435097f1dc14512b8f640189c8388893fa7b51e1b45f4245e1b12b3c5e7c553ba795e697f2f9a0685c52035678b468ef23503fbd01a1691f0047108d4248fe738e6b6105586610cee565b610ec6610244357f1371e00efe595fd2066a5d4c9048278059f71893e35642ce1d2d15bf4a047a057f03fe6755813ffc188b5267d2c9f3e3fc0d2e444396ffe1a4a913f5430666e96a86610cee565b610f15610264357f2b9ffe329e87adb9f547438a451b63f1f01dd09e95b8f59c1bd3644369a60e797f08fcc7e26ea519e81c46166ea35fa0b637321d74fbfee91470a173c8f251f54786610cee565b610f64610284357f1c7a4eb5bb898b1f5b938c08abe31dd6b0e47cb468775ad7bbb4af4b14f534497f1d5be03e469528390dd65bc93bf492d7906b1e7e37bd191cffb5ca2ce6f347b886610cee565b60a08401517f30644e72e131a029b85045b68181585d2833e84879b9709143e1f593f0000001837f30644e72e131a029b85045b68181585d2833e84879b9709143e1f593f0000001836102443508087f30644e72e131a029b85045b68181585d2833e84879b9709143e1f593f0000001847f30644e72e131a029b85045b68181585d2833e84879b9709143e1f593f000000180600286096102643508087f30644e72e131a029b85045b68181585d2833e84879b9709143e1f593f0000001857f30644e72e131a029b85045b68181585d2833e84879b9709143e1f593f000000180600387096102843508087f30644e72e131a029b85045b68181585d2833e84879b9709143e1f593f00000015f8901517f30644e72e131a029b85045b68181585d2833e84879b9709143e1f593f0000001837f30644e72e131a029b85045b68181585d2833e84879b9709143e1f593f000000186880909097f30644e72e131a029b85045b68181585d2833e84879b9709143e1f593f00000016102c08a01516103208b0151096110f860c460c08901610c99565b6111517f30644e72e131a029b85045b68181585d2833e84879b9709143e1f593f00000016101608c01517f30644e72e131a029b85045b68181585d2833e84879b9709143e1f593f00000018486080860c0890189610d8c565b7f30644e72e131a029b85045b68181585d2833e84879b9709143e1f593f0000001887f30644e72e131a029b85045b68181585d2833e84879b9709143e1f593f0000001806102a43560208f01510961024435080894507f30644e72e131a029b85045b68181585d2833e84879b9709143e1f593f0000001887f30644e72e131a029b85045b68181585d2833e84879b9709143e1f593f0000001806102c43560208f01510961026435080893507f30644e72e131a029b85045b68181585d2833e84879b9709143e1f593f00000016102e4357f30644e72e131a029b85045b68181585d2833e84879b9709143e1f593f000000160208d01515f8e0151090992506112e57f30644e72e131a029b85045b68181585d2833e84879b9709143e1f593f0000001847f30644e72e131a029b85045b68181585d2833e84879b9709143e1f593f0000001878909097f1d7059fb3537f99f83ec97a5944d1125e16b5b9f16315e51b3e0c44a5e9561837f0348408e92f63afe8e03da3e33275c0c9c90abb31f421233886414e403af3ef260408b01610d54565b6112f461010460808901610c99565b61131060808b0151602061014401356101443560808b01610cee565b7f30644e72e131a029b85045b68181585d2833e84879b9709143e1f593f000000160808b015160808c01510961135481602061018401356101843560808c01610cee565b6113706102e08c015160a08a015160808b015160808c01610d54565b7f30644e72e131a029b85045b68181585d97816a916871ca8d3c208c16d87cfd47602060408a0101517f30644e72e131a029b85045b68181585d97816a916871ca8d3c208c16d87cfd470306602060408a0101527f30644e72e131a029b85045b68181585d97816a916871ca8d3c208c16d87cfd4760a08901517f30644e72e131a029b85045b68181585d97816a916871ca8d3c208c16d87cfd47030660a089015261141c888b610cab565b611429604089018b610cab565b611436608089018b610cab565b5050505050505050505050565b61020081016114566101c0830182610c79565b61146d60c083015160206004013560043584610cee565b61148460e083015160206044013560443584610cee565b61149c61010083015160206084013560843584610cee565b6114ed6101208301517f29de0c239a5033a8707effafe6247d137006ff75ac0edf7f31650cf92d519ee27f246c11fb9a5a734c8fadef178d9e9cb0e30fe074ab167edaf2fa78d95a20f21584610cee565b61153e6101408301517f138a97439a5bf03b60c6d18a363f3979e960779e046ffb9df39bd94b2ead0f427f04bac4d6a8c5c0e81e50c0211eae09541a83deaaf2f3cad51e1c83581083190a84610cee565b5050565b7f30644e72e131a029b85045b68181585d2833e84879b9709143e1f593f00000016101a08201517f30644e72e131a029b85045b68181585d2833e84879b9709143e1f593f000000103067f30644e72e131a029b85045b68181585d2833e84879b9709143e1f593f00000018060c08401516102443509820890507f30644e72e131a029b85045b68181585d2833e84879b9709143e1f593f00000018060e08401516102643509820890507f30644e72e131a029b85045b68181585d2833e84879b9709143e1f593f0000001806101008401516102843509820890507f30644e72e131a029b85045b68181585d2833e84879b9709143e1f593f0000001806101208401516102a43509820890507f30644e72e131a029b85045b68181585d2833e84879b9709143e1f593f0000001806101408401516102c43509820890507f30644e72e131a029b85045b68181585d2833e84879b9709143e1f593f0000001806101608401516102e43509820890506116c281600260016102408601610d54565b5050565b5f604051610240810160405261018081016101c0820161020083016116ed6101c484610c99565b6116f961020483610c99565b6117096101608701518386610d8c565b6117138385610cab565b7f30644e72e131a029b85045b68181585d97816a916871ca8d3c208c16d87cfd4760208501517f30644e72e131a029b85045b68181585d97816a916871ca8d3c208c16d87cfd47030660208501527f26186a2d65ee4d2f9c9a5b91f86597d35f192cd120caf7e935d8443d1938e23d60408501527f30441fd1b5d3370482c42152a8899027716989a6996c2535bc9f7fee8aaef79e60608501527f1970ea81dd6992adfbc571effb03503adbbb6a857f578403c6c40e22d65b3c0260808501527f054793348f12c0cf5622c340573cb277586319de359ab9389778f689786b1e4860a085015261180b60608701518460c08701610d8c565b7f30644e72e131a029b85045b68181585d2833e84879b9709143e1f593f00000016060870151610160880151097f30644e72e131a029b85045b68181585d2833e84879b9709143e1f593f00000017f16e73dfdad310991df5ce19ce85943e01dcb5564b6f24c799d0e470cba9d181182099050611889818484610d8c565b6118968260c08701610cab565b6118a7610200880160c08701610cab565b7f30644e72e131a029b85045b68181585d97816a916871ca8d3c208c16d87cfd476020610240018801517f30644e72e131a029b85045b68181585d97816a916871ca8d3c208c16d87cfd47030660206102400188015261190e610240880160c08701610cab565b7f198e9393920d483a7260bfb731fb5d25f1aa493335a9e71297e485b7aef312c26101008601527f1800deef121f1e76426a00665e5c4479674322d4f75edadd46debd5cd992f6ed6101208601527f090689d0585ff075ec9e99ad690c3395bc4b313370b38ef355acdadcd122975b6101408601527f12c85ea5db8c6deb4aab71808dcb408fe3d1e7690c43d37b4ce6cc0166fa7daa6101608601526020856101808760086107d05a03fa855181169650505050505050919050565b60405161034081016040526119dd6101fb565b6119e78382610245565b6119f081610923565b6119fa83826109c7565b611a0381610a28565b611a0c81610da2565b611a1581611443565b611a1e81611542565b611a27816116c6565b6103408203604052805f5260205ff35b5f5ffd5b5f5ffd5b5f81905082602060180282011115611a5a57611a59611a3b565b5b92915050565b5f81905082602060010282011115611a7b57611a7a611a3b565b5b92915050565b5f5f6103208385031215611a9857611a97611a37565b5b5f611aa585828601611a3f565b925050610300611ab785828601611a60565b9150509250929050565b5f8115159050919050565b611ad581611ac1565b82525050565b5f602082019050611aee5f830184611acc565b9291505056fea2646970667358221220de1af9582f6e243db7e816286ed1caa96aa6f1c0a126b360fb463bd9fb92b10d64736f6c634300081c0033","linkReferences":{}},"methodIdentifiers":{"verifyProof(uint256[24],uint256[1])":"ff7240a7"},"id":15}